:020000040800F2
:1000000078040020B11B0008791B00087B1B000846
:100010007D1B00087F1B0008811B000800000000FA
:10002000000000000000000000000000831B00082A
:10003000851B000800000000871B0008891B0008C2
:10004000151C0008191C00081D1C0008211C0008B4
:10005000251C0008291C00082D1C0008311C000864
:10006000351C0008391C00083D1C0008411C000814
:10007000451C0008491C00084D1C0008511C0008C4
:10008000551C0008591C00085D1C0008611C000874
:10009000651C0008691C00086D1C0008711C000824
:1000A000751C0008791C00087D1C0008811C0008D4
:1000B000851C0008891C00088D1C0008911C000884
:1000C000951C0008991C00089D1C0008A11C000834
:1000D000A51C0008A91C0008AD1C0008B11C0008E4
:1000E000B51C0008B91C0008BD1C0008C11C000894
:1000F000C51C0008C91C0008CD1C0008D11C000844
:10010000D51C0008D91C0008DD1C0008E11C0008F3
:10011000E51C0008E91C0008ED1C0008F11C0008A3
:10012000F51C0008F91C0008FD1C0008011D000852
:10013000051D0008091D00080D1D0008111D0008FF
:10014000151D0008191D00081D1D0008211D0008AF
:10015000251D0008291D00082D1D0008311D00085F
:10016000351D0008391D00083D1D0008411D00080F
:10017000451D0008491D00084D1D00080000000035
:10018000511D0008551D000838B50400002C01D190
:100190000120E0E094F83D00002805D1002084F81B
:1001A0003C00200000F048FB242084F83D0020683B
:1001B000006840084000216808602068006850F42A
:1001C0000040216808602068006830F40040216821
:1001D000086000F011FC0100DFF8E822606890423E
:1001E00008D2DFF8E402814201D2012000E00020C1
:1001F000C0B207E0DFF8D402814201D2012000E062
:100200000020C0B2012801D10120A4E0DFF8C00223
:10021000B1FBF0F32068406880098001184325682D
:1002200068602068056A6068904201D25B1C07E044
:100230004FF4967043434FF47A70B3FBF0F35B1CBA
:10024000AD09AD012B43206803622068C369606873
:10025000904214D2481E62685200B0FBF2F0401C7B
:100260000005000D042801D204213EE0491E60680B
:100270004000B1FBF0F1491C0905090D35E0A0680B
:10028000002809D14A1E656803204543B2FBF5F0FA
:10029000401C0005000D0AE04A1E65681920454310
:1002A000B2FBF5F0401C0005000D50F48040000545
:1002B00001D1012119E0A068002809D1491E626816
:1002C00003204243B1FBF2F1491C0905090D0AE084
:1002D000491E626819204243B1FBF2F1491C09052D
:1002E000090D51F4804151F40041DFF8E801034069
:1002F0000B432068C3612068016831F0C001E069E8
:100300000143206A01432068016020688168DFF8AA
:10031000C801014020690143E06801432068816011
:100320002068C168090A0902A26960690243114391
:100330002068C1602068006850F0010021680860F2
:1003400000202064202084F83D000020206300204D
:1003500084F83E00002032BD2DE9F84304000F0070
:100360009046994600F062FB050094F83D00202875
:1003700040F0A580009519230122DFF860112000CC
:1003800000F00EF9002801D0022099E094F83C001A
:10039000012801D1022093E0012084F83C0020686C
:1003A0000068C00705D42068006850F0010021688B
:1003B0000860089E2068006830F4006021680860CA
:1003C000212084F83D00102084F83E0000202064A5
:1003D000C4F82480A4F82A90608D2085DFF80001FD
:1003E000E0622B003200390089B2200000F07AF878
:1003F000002801D0012063E00020009020684069BF
:1004000000902068806900900098208D002845D0D9
:100410002A003100200000F065F9002828D1606A28
:10042000007821680861606A401C6062608D401E2F
:100430006085208D401E20852068406940070FD5CB
:10044000208D00280CD0606A007821680861606AFD
:10045000401C6062608D401E6085208D401E20859E
:100460002A003100200000F069F90028CDD00AE010
:10047000206C042805D12068006850F400702168C1
:10048000086001201CE0206C042805D12068006869
:1004900050F4007021680860012011E020680068B5
:1004A00050F4007021680860202084F83D0000208E
:1004B00084F83E00002084F83C00002000E0022088
:1004C000BDE8F283A186010080841E0000093D0082
:1004D00040420F000030FFFF007CFFFF02001000D1
:1004E0000000FFFFF8B504000D0016001F00E06AD1
:1004F000082805D0012803D0DFF89812884206D1D9
:100500002068006850F480702168086008E0206B63
:10051000122805D12068006850F4807021680860B6
:100520000097330000225FF00111200000F038F83E
:10053000002808D020680068C00502D54FF400707C
:10054000206403202BE02069B0F5804F04D115F022
:10055000FE052068056116E015F4407080B2C00900
:1005600050F0F000C0B2216808613B003200DFF8B3
:100570002812200000F059F8002801D001200EE0D8
:10058000EDB2206805613B003200DFF81012200058
:1005900000F04BF8002801D0012000E00020F2BD5F
:1005A0002DE9F04105000E0017001C00DDF8188051
:1005B0003000000CC0B201280AD1286840693040E0
:1005C00080B2B1B2884201D101200BE0002009E0E5
:1005D00028688069304080B2B1B2884201D10120E0
:1005E00000E000203900C9B288421BD114F1010F8C
:1005F000DED000F01BFAB0EB0800844201D3002CDF
:10060000D6D100202863202085F83D00002085F801
:100610003E00286C50F020002864002085F83C0043
:10062000012000E00020BDE8F081F8B505000E00D3
:1006300014001F003000000CC0B201280AD1286845
:100640004069304080B2B1B2884201D101200BE054
:10065000002009E028688069304080B2B1B2884249
:1006600001D1012000E00020002839D1286840692C
:1006700040051AD52868006850F4007029680860A1
:100680007FF480602968486100202863202085F875
:100690003D00002085F83E00286C50F004002864DE
:1006A000002085F83C0001201BE014F1010FC1D0AF
:1006B00000F0BCF9C01B844201D3002CBAD1002049
:1006C0002863202085F83D00002085F83E00286C36
:1006D00050F020002864002085F83C00012000E054
:1006E0000020F2BD70B505000C00160028684069B6
:1006F000000621D4280000F053F8002801D0012082
:100700001BE014F1010FF1D000F090F9801B84423E
:1007100001D3002CEAD100202863202085F83D0079
:10072000002085F83E00286C50F02000286400204E
:1007300085F83C00012000E0002070BD70B5050088
:100740000C00160028684069400721D4280000F0FA
:1007500027F8002801D001201BE014F1010FF1D08F
:1007600000F064F9801B844201D3002CEAD1002000
:100770002863202085F83D00002085F83E00286C85
:1007800050F020002864002085F83C00012000E0A3
:10079000002070BD0000FFFF080001000200010002
:1007A00001684969490514D57FF480610268516187
:1007B00000210163202180F83D10002180F83E10C7
:1007C000016C51F004010164002180F83C1001200B
:1007D00000E0002070470EE00268436802440830E1
:1007E0005FEAC37C44BF4B445B1E52F804CB43F822
:1007F00004CB091FF9D150F8041B0029ECD1704734
:1008000080B5274827490160274941600021816060
:100810000021C1604FF4804101610021416100214C
:1008200081610021C16100210162FFF7ADFC002858
:1008300001D000F0AFF901BD10B586B0040014225C
:10084000002101A800F0A8F920681649884225D1A6
:10085000002000901548016851F002010160006815
:1008600010F0020000900098C02001901220029029
:1008700000200390032004900420059001A90C4857
:1008800000F094F9002000900A48016851F400112A
:100890000160006810F400100090009806B010BDD0
:1008A0000C00002000540040A086010030380240B7
:1008B00000040240403802402DE9F04104000E00DF
:1008C000002C01D1012092E0514D286810F0070062
:1008D000B04207D22E70286810F00700B04201D055
:1008E000012084E02078800716D52078400704D5C1
:1008F0004848016851F4E05101602078000704D5B0
:100900004448016851F46041016042490A6832F08C
:10091000F002A06802430A602078C00735D56068FD
:10092000012805D13C480068800313D401205EE013
:100930006068022802D06068032805D13648006844
:10094000800107D4012052E033480068800701D4B9
:1009500001204CE02F4F3968890889006068014305
:10096000396000F063F88046386810F00C00616868
:10097000B0EB810F09D000F059F8B0EB080041F25C
:1009800089318842F0D3032031E0286810F0070055
:10099000864207D22E70286810F00700B04201D0BE
:1009A000012024E02078400706D51A490A6832F46D
:1009B000E052E06802430A602078000707D5154836
:1009C000016831F46041226951EAC201016000F01E
:1009D000F5F912490F4A1268C2F30312895CC84044
:1009E0000F4908600F48006800F028FA0020BDE8B1
:1009F000F0810B480068704780B5FFF7FAFF0A499D
:100A0000044A1268C2F38222895CC84002BD000019
:100A1000003C02400838024000380240A01B000899
:100A200004000020000000200C1C000801480068A1
:100A3000704700BF7000002038B500F025FA00F0C4
:100A400044F800F03BFAFFF7DBFE494C7E224949AF
:100A5000200000F05BFA4849200000F0CFFA4FF484
:100A6000FA6000F013FC002508E00121200000F0EE
:100A70003CFB4FF4967000F009FC6D1C102DF4DB6C
:100A8000200000F0E6FA3D49200000F0B7FA01220C
:100A90000021200000F0C7FA3949200000F0AEFA2A
:100AA0004FF4FA6000F0F2FB200000F0D2FA354972
:100AB000200000F0A3FA01220021200000F0B3FA88
:100AC0003149200000F09AFAFEE780B592B030225A
:100AD000002106A800F060F81422002101A800F00F
:100AE0005BF8002000902948016851F080510160B6
:100AF000006810F08050009000980020009024487A
:100B0000016851F480410160006810F48040009059
:100B10000098012006905FF48030079002200C902E
:100B20005FF480000D9004200E90A8200F9002200A
:100B300010900420119006A800F0BCFB002801D002
:100B400000F028F80F20019002200290002003906E
:100B50004FF4A05004904FF480500590052101A857
:100B6000FFF7AAFE002801D000F014F813B000BD72
:100B7000600000200C000020901B0008D01B000823
:100B8000DC1B0008E81B0008F41B0008403802408A
:100B90000070004072B6FEE710B5044610460A46E3
:100BA0000146204600F068FD204610BDF8B4002242
:100BB00000220022002337E0082704E0DFF8C421E8
:100BC0009042F9D10727FFB213F00302D2B292008C
:100BD00097403E431A00920845F82260DFF8A8517A
:100BE0002A68A2434E68F60200D522432A60DFF845
:100BF0009C512A68A2434E68B60200D522432A605F
:100C0000DFF88C512A68A2434E68B60300D5224310
:100C10002A60DFF880512A68A2434E68F60301D5A6
:100C2000144322002A605B1C102B80F0A880012551
:100C300015FA03F20C6814409442F4D10A7912F0C8
:100C40000302012A04D00A7912F00302022A16D103
:100C5000866803271A00D2B252009740BE43CF687D
:100C60001A00D2B2520097403E43866042689D40CF
:100C7000AA434D68C5F300159D402A4342600A7996
:100C800012F00302032A0DD0C56803261A00D2B25F
:100C900052009640B5438E681A00D2B25200964078
:100CA0003543C5600A7912F00302022A17D11A00EF
:100CB000D20800EB8202156A0F2613F00702D2B2A7
:100CC00092009640B5430E6913F00702D2B292002B
:100CD000964035431A00D20800EB8202156205687F
:100CE00003261A00D2B252009640B5430E7916F090
:100CF00003061A00D2B252009640354305604A6896
:100D000012F4403F8FD000220092234A156855F418
:100D100080451560126812F480420092009A1F4DBF
:100D20001A00920855F822600F2713F00302D2B27E
:100D300092009740BE431A4A904201D1002742E7F1
:100D4000184A904201D101273DE7174A904201D14C
:100D5000022738E7154A904201D1032733E7144AA6
:100D6000904201D104272EE7124A904201D1052773
:100D700029E7114A90427FF421AF062723E7F1BC0F
:100D800070470000001C0240083C01400C3C014040
:100D9000043C0140003C0140443802400838014016
:100DA000000002400004024000080240000C024023
:100DB00000100240001402400018024010B500204C
:100DC0000020002000201948006810F00C000028C6
:100DD00004D0042804D0082804D025E0144824E0D6
:100DE000144822E0144C226812F03F0220684002AE
:100DF00009D52068C0F388100E49A1FB000100232B
:100E000000F06EFC08E02068C0F388100849A1FBE0
:100E10000001002300F064FC2168C1F30141491C7A
:100E20004900B0FBF1F000E0014810BD0838024075
:100E30000024F40000127A000438024010B50400C7
:100E40004FF47A700D490978B0FBF1F00C4909684C
:100E5000B1FBF0F000F0CAFD002801D001200CE049
:100E6000102C09D2002221005FF0FF3000F0ADFD10
:100E700004480460002000E0012010BD08000020AC
:100E8000040000200000002080B50B48016851F4E8
:100E900000710160016851F480610160016851F4E2
:100EA00080710160032000F08CFD0F20FFF7C6FF6A
:100EB00000F0AEFD002002BD003C024081B00020E9
:100EC00000901148016851F080010160016811F043
:100ED00080010091009900210091016851F0010109
:100EE0000160016811F00101009100990021009159
:100EF000016851F002010160006810F002000090EA
:100F0000009801B0704700BF3038024070B504004F
:100F10000D001600642000F0B9F92560267100204C
:100F200060710020A0710120E07101202072012079
:100F300060720120A0720020E07200202073002067
:100F400060730021200000F0E7F80021200000F08D
:100F5000FBF80021200000F00FF90021200000F034
:100F6000B1F8322000F092F930206071611D20004C
:100F700000F027F9052000F089F9611D200000F03C
:100F800020F9012000F082F9611D200000F019F91C
:100F900020206071611D200000F013F92020607195
:100FA000611D200000F00DF980206071611D20009E
:100FB00000F007F90021200000F05EF8200000F0AA
:100FC00048F800206071611D200000F0FAF86020F0
:100FD0006071611D200000F0F4F80121200000F094
:100FE0004BF84FF4FA7000F051F90121200000F0A5
:100FF00069F84FF4FA7000F049F970BD38B5040093
:101000000D002878A0716D1CA11D200000F00BF9C7
:10101000A0790001A071A11D200000F004F928783A
:101020000028EED131BD10B50400D2B240204243B9
:1010300052FA81F050F080006071611D200000F0D4
:10104000C0F8607900016071611D200000F0B9F8FE
:1010500010BD10B5040001206071611D200000F07A
:10106000B0F8607900016071611D200000F0A9F8FE
:10107000022000F00BF910BD10B5040008206071CB
:10108000E172E07A012803D1607950F004006071C8
:10109000207B012803D1607950F002006071607BF1
:1010A000012803D1607950F001006071611D2000BA
:1010B00000F087F8607900016071611D200000F088
:1010C00080F810BD1CB50400A172200000F06CF87F
:1010D0008DF804004FF47A700090012301AA217961
:1010E00089B22068FFF738F913BD10B50400182045
:1010F0006071C9B2002903D1607950F004006071B9
:10110000611D200000F05DF8607900016071611DD3
:10111000200000F056F810BD1CB50400E0790A006C
:10112000D2B290420FD0E171200000F03DF88DF86E
:1011300004004FF47A700090012301AA217989B24A
:101140002068FFF709F913BD1CB50400207A0A00D6
:10115000D2B290420FD02172200000F025F88DF815
:1011600004004FF47A700090012301AA217989B21A
:101170002068FFF7F1F813BD1CB50400607A0A007F
:10118000D2B290420FD06172200000F00DF88DF8BD
:1011900004004FF47A700090012301AA217989B2EA
:1011A0002068FFF7D9F813BD0100C8790A7A50EA20
:1011B00042004A7A50EA8200897A50EAC100C0B2FD
:1011C00070473EB504000D0000212000FFF7A4FF8A
:1011D00000212000FFF7B8FF01212000FFF7CCFF1E
:1011E0002000FFF7E1FF9DF8041011F0F001084323
:1011F0008DF804009DF8040010F00F00297811F01C
:10120000F00108438DF804004FF47A700090012338
:1012100001AA217989B22068FFF79EF800212000F9
:10122000FFF7AAFF37BD3EB504000D0001212000E5
:10123000FFF772FF00212000FFF786FF0121200049
:10124000FFF79AFF2000FFF7AFFF9DF8041011F0A1
:10125000F00108438DF804009DF8040010F00F0021
:10126000297811F0F00108438DF804004FF47A70EA
:101270000090012301AA217989B22068FFF76CF858
:1012800000212000FFF778FF37BD000038B50400CB
:10129000FFF7CCFB050014F1010F02D004480078E1
:1012A0002418FFF7C3FB401BA042FAD331BD00BF97
:1012B000080000202DE9FC410400002C01D1012090
:1012C000C4E12078C0075FD5DFF88403016811F01E
:1012D0000C01042909D0006810F00C0008280ED178
:1012E000DFF870030068400209D5DFF86C0300687E
:1012F000800349D56068002846D10120A6E16068D6
:10130000B0F5803F06D1DFF85003016851F4803119
:10131000016018E06068B0F5A02F0AD1DFF838034B
:10132000016851F480210160016851F4803101604D
:1013300009E0DFF82403016831F4803101600168BD
:1013400031F480210160606800280ED0FFF76EFB49
:101350000500DFF804030068800315D4FFF766FB7F
:10136000401B6528F5D3032070E1FFF75FFB050004
:10137000DFF8E4020068800306D5FFF757FB401B47
:101380006528F5D3032061E1207880071DD5B0489A
:10139000016811F00C0F08D0006810F00C0008284C
:1013A0002AD1AC480068400226D4AB4801688907BE
:1013B00004D5E168012901D0012047E1016831F03D
:1013C000F801226951EAC20101602078000751D575
:1013D000606900283DD00120A0490860FFF726FB86
:1013E00005009F480068800744D4FFF71FFB401B9F
:1013F0000328F6D3032029E1E068002818D0012053
:1014000098490860FFF712FB0500934801688907B7
:1014100006D4FFF70BFB401B0328F6D3032015E18E
:10142000016831F0F801226951EAC2010160CCE79C
:1014300000208C490860FFF7F9FA0500864800682B
:101440008007C2D5FFF7F2FA401B0328F6D303202A
:10145000FCE0002081490860FFF7E8FA05008048B9
:101460000068800706D5FFF7E1FA401B0328F6D392
:101470000320EBE0207840076FD500267A4D2868DE
:10148000C0000BD400200090286850F080502860E5
:10149000286810F08050009000980126734F38683B
:1014A000C00511D4386850F480703860FFF7BEFA78
:1014B00080463868C00507D4FFF7B8FAB0EB0800DB
:1014C0000328F6D30320C1E0A068012805D16848AD
:1014D000016851F00101016015E0A068052809D1FB
:1014E0006348016851F004010160016851F0010195
:1014F000016008E05E480168490849000160016830
:1015000031F004010160A06800280FD0FFF78EFAC7
:10151000070057480068800718D4FFF787FAC01BF8
:1015200041F289318842F4D303208FE0FFF77EFA3D
:1015300007004F480068800708D5FFF777FAC01BFF
:1015400041F289318842F4D303207FE0F6B2012EC4
:1015500003D1286830F080502860A069002874D03A
:101560003B48006810F00C00082843D0A06902280E
:101570002FD1404E00203060FFF758FA0700364D5B
:101580002868800106D5FFF751FAC01B0328F6D35F
:1015900003205BE0E169206A0143606A51EA80113F
:1015A000A06A4008401E51EA0041E06A51EA006129
:1015B0002848016001203060FFF738FA04002868ED
:1015C000800142D4FFF732FA001B0328F7D303202F
:1015D0003CE0002027490860FFF728FA04001E4875
:1015E0000068800131D5FFF721FA001B0328F6D3EC
:1015F00003202BE0A069012801D1012026E0154835
:101600000068A16901291ED010F48001E2699142AD
:1016100019D110F03F01226A914214D147F6C071EE
:101620000140626AB1EB821F0DD110F44031A26A11
:101630005208521EB1EB024F05D110F07060E16A02
:10164000B0EB016F01D0012000E00020BDE8F68181
:10165000083802400438024000380240800E4742F9
:101660007438024000004742403802400070004099
:10167000703802406000474262F30F2262F31F425B
:10168000401810F0030308D0C91A1FD3DB0748BF66
:1016900000F8012D28BF20F8022D130030B41446A5
:1016A0001546103928BF20E93C00FAD8490728BF61
:1016B00020E90C0048BF40F8042D890028BF20F81D
:1016C000022D48BF00F8012D30BC7047C91818BF63
:1016D00000F8012DCB0728BF00F8012D704700004E
:1016E000BBBBE1B1B2F5803F80F07E80022A1ED9FB
:1016F0008C46B1FBF2F102FB11C31B0443EA104319
:10170000B3FBF2FC02FB1C3380B240EA0343B3FBA1
:10171000F2F002FB103240EA0C4000237047022A2C
:1017200005D98446B0FBF2F002FB10C270474AB103
:1017300005D100F0010249085FEA3000704700223D
:101740000023704700F084B90B0002000021002044
:101750007047904271EB030CF6D3B3F5803F2FD264
:10176000F0B5B3FA83F7B1FA81F4A7F10F0E3D1B80
:101770005340CEF1200602FA0EF2F3415340B5F188
:101780000F0746D80F3C2C444140C4F12006A0402E
:10179000F1414140B1FBF3F603FB1611A2FB0645F4
:1017A000001BA94102D2761E8018594180EA01022D
:1017B00021FA0EF362FA0EF200215A403046F0BDD3
:1017C00030B4B1FBF3FC03FB1C11A2FB0C45001B66
:1017D000A94103D2ACF1010C8018594130BC02463A
:1017E0000B46604600217047B2F1807F65D3F0B5AB
:1017F000B2FA82F7B1FA81F4C7F10F063D1B22FA63
:1018000006F307F1110EF24120355A40B5F10F07EA
:10181000B8D94140C4F12006A040F1414140B1FB9C
:10182000F3FC03FB1C11A2FB0C45001BA94103D2D6
:10183000BCF1010C801859410F2F12D30F3FC9037F
:1018400041EA5041B1FBF3F603FB1611A2FB06453A
:10185000D4EBC030A94102D2761E8018594146EA25
:10186000CC3C07B34140C7F12006B840F1414140AC
:10187000B1FBF3F603FB1611A2FB0645001BA941C1
:1018800002D2761E8018594180EA010221FA0EF335
:10189000C7F1200462FA0EF20CFA07F05A402CFA53
:1018A00004F13043F0BD80EA010221FA0EF3002179
:1018B00062FA0EF260465A40F0BD8C46B1FBF2F17E
:1018C00002FB11C31B0243EA1063B3FBF2FC02FBF1
:1018D0001C331B024CEA002043EA1063B3FBF2FC0A
:1018E00002FB1C331B024CEA002043EA1063B3FBEB
:1018F000F2FC02FB1C331B024CEA002043EA10639B
:10190000B3FBF2FC02FB1C324CEA002000237047C0
:1019100010F00700374B1A684FF6FF010A4052EAF1
:101920000022354802431A60704732480068C0F30D
:1019300002207047020052B2002A04D409012F4A43
:1019400040B2115407E009012D4A40B210F00F00D7
:10195000104400F8041C704710B410F00700D0F1D8
:101960000703052B01D3042301E0D0F10703041D75
:10197000072C01D2002000E0C01E012414FA03F35A
:101980005B1E1940814014FA00F0401E10400843CD
:1019900010BC704780B5411EB1F1807F01D301209A
:1019A0000EE0401E174908600F215FF0FF30FFF77F
:1019B000C1FF002014490860072014490860002076
:1019C00002BD80B5FFF7A4FF01BD70B504000D0096
:1019D00016000020FFF7A9FF32002900FFF7BCFF27
:1019E0000100200040B2FFF7A5FF70BD80B5FFF7F2
:1019F000D1FF02BD0CED00E00000FA0500E400E0BC
:101A000018ED00E014E000E018E000E010E000E075
:101A100081B0002000900C48016851F480410160C1
:101A2000006810F480400090009800200090074863
:101A3000016851F080510160006810F08050009002
:101A4000009801B0704700BF44380240403802405F
:101A5000704730B4002512E050F8042BD30744BF80
:101A60004A44521E091F042942F8045BFAD2134665
:101A70008C0744BF15809B1CC90748BF1D7050F8D8
:101A8000041B0029E8D130BC7047000010B507499D
:101A900079441831064C7C44163404E00A68081D69
:101AA000114488470146A142F8D110BD2C00000026
:101AB0004C0000004EF68851CEF20001086840F458
:101AC00070000860BFF34F8FBFF36F8F4FF001704E
:101AD000E1EE100A704700007BFFFFFF6800000086
:101AE0000C00002000000000EFECFFFF0C000000E5
:101AF00010010000000000200000000000F00DF8C0
:101B0000002801D0FFF7C2FFAFF300800020AFF341
:101B10000080FEF791FF00F002F80120704700F00E
:101B200001B800000746384600F002F8FBE7000065
:101B300080B5AFF30080024A11001820ABBEFBE76E
:101B4000260002000548014603B4684680F3098870
:101B5000AFF30080FFF7AEFFFFF7D0FFA5EDF5FE76
:101B600003480168034A127889180160704700BF72
:101B70007000002008000020FEE7FEE7FEE7FEE719
:101B8000FEE770477047704780B5FFF7E9FF01BD7A
:101B900048656C6C6F20776F726C642100000000E8
:101BA000000000000000000001020304060708090D
:101BB0000148804701480047C11B0008451B000839
:101BC0000248016851F470010160704788ED00E03F
:101BD000436F6D70696C6174696F6E0073746172CC
:101BE000742074696D653A004A756E20323920326E
:101BF0003032330030393A34363A303400000000A5
:101C0000100000000024F4000100000000000000AB
:101C100001020304FFF7FEBFFFF7FEBFFFF7FEBFA1
:101C2000FFF7FEBFFFF7FEBFFFF7FEBFFFF7FEBFE8
:101C3000FFF7FEBFFFF7FEBFFFF7FEBFFFF7FEBFD8
:101C4000FFF7FEBFFFF7FEBFFFF7FEBFFFF7FEBFC8
:101C5000FFF7FEBFFFF7FEBFFFF7FEBFFFF7FEBFB8
:101C6000FFF7FEBFFFF7FEBFFFF7FEBFFFF7FEBFA8
:101C7000FFF7FEBFFFF7FEBFFFF7FEBFFFF7FEBF98
:101C8000FFF7FEBFFFF7FEBFFFF7FEBFFFF7FEBF88
:101C9000FFF7FEBFFFF7FEBFFFF7FEBFFFF7FEBF78
:101CA000FFF7FEBFFFF7FEBFFFF7FEBFFFF7FEBF68
:101CB000FFF7FEBFFFF7FEBFFFF7FEBFFFF7FEBF58
:101CC000FFF7FEBFFFF7FEBFFFF7FEBFFFF7FEBF48
:101CD000FFF7FEBFFFF7FEBFFFF7FEBFFFF7FEBF38
:101CE000FFF7FEBFFFF7FEBFFFF7FEBFFFF7FEBF28
:101CF000FFF7FEBFFFF7FEBFFFF7FEBFFFF7FEBF18
:101D0000FFF7FEBFFFF7FEBFFFF7FEBFFFF7FEBF07
:101D1000FFF7FEBFFFF7FEBFFFF7FEBFFFF7FEBFF7
:101D2000FFF7FEBFFFF7FEBFFFF7FEBFFFF7FEBFE7
:101D3000FFF7FEBFFFF7FEBFFFF7FEBFFFF7FEBFD7
:101D4000FFF7FEBFFFF7FEBFFFF7FEBFFFF7FEBFC7
:081D5000FFF7FEBFFFF7FEBF25
:0400000508001B458F
:00000001FF
